:020000040800F2
:1000000000500020A10C0008A5020008A70200086B
:10001000A9020008AB020008AD02000800000000C1
:10002000000000000000000000000000AF02000817
:10003000B102000800000000B3020008B502000889
:10004000E90C0008E90C0008E90C0008E90C0008BC
:10005000E90C0008E90C0008E90C0008E90C0008AC
:10006000E90C0008E90C0008E90C0008E90C00089C
:10007000E90C0008E90C0008E90C0008E90C00088C
:10008000E90C0008E90C0008E90C0008E90C00087C
:10009000E90C0008E90C0008E90C0008E90C00086C
:1000A000E90C0008E90C0008E90C0008E90C00085C
:1000B000E90C0008E90C0008E90C0008E90C00084C
:1000C000E90C0008E90C0008E90C0008E90C00083C
:1000D000E90C0008E90C0008E90C0008E90C00082C
:1000E000E90C0008E90C0008E90C00080000000019
:1000F0000000000000000000000000000000000000
:0C01000000000000000000005FF808F1A3
:10010C000348044B834202D0034B03B1184770479A
:10011C000C0000200C000020000000000548064BDD
:10012C001B1AD90F01EBA301491002D0034B03B1E9
:10013C00184770470C0000200C0000200000000045
:10014C0010B5064C237843B9FFF7DAFF044B13B113
:10015C000448AFF300800123237010BD0C00002075
:10016C0000000000440D000808B5054B1BB1054903
:10017C000548AFF30080BDE80840FFF7CFBF00BFD4
:10018C000000000010000020440D000870B588B07D
:10019C0004AD00240494059406940794184B9A69B2
:1001AC0042F010029A619A6902F010020192019ACF
:1001BC009A6942F020029A619A6902F02002029236
:1001CC00029A9A6942F004029A619B6903F0040353
:1001DC000393039B0B4E01224FF40051304600F069
:1001EC00D9FC4FF400530493012305930694022386
:1001FC0007932946304600F0DBFB08B070BD00BF0A
:10020C00001002400010014072B6FEE710B590B02D
:10021C0006AC28220021204600F061FD002301934A
:10022C000293039304930593012206924FF48033B7
:10023C0007930A9202220D920E934FF4E0130F9340
:10024C00204600F0CBF870B90F23019302210291E4
:10025C0003904FF480620492059001A800F0F2FA2A
:10026C0018B910B010BDFFF7CFFFFFF7CDFF00009E
:10027C0008B500F065F8FFF7C9FFFFF787FF4FF4EB
:10028C000051044800F08CFC4FF47A7000F07CF8BC
:10029C00F5E700BF00100140FEE7FEE7FEE7FEE7D2
:1002AC00FEE770477047704708B500F05BF808BD73
:1002BC0082B00E4B9A6942F001029A619A6902F07F
:1002CC0001020092009ADA6942F08052DA61DB692D
:1002DC0003F080530193019B054A536823F0E063BC
:1002EC0043F00073536002B0704700BF001002402F
:1002FC000000014010B504460E4B18680E4B1A78DE
:10030C004FF47A73B3FBF2F3B0FBF3F000F0ACFCF8
:10031C0068B90F2C01D901200AE0024621464FF0A2
:10032C00FF3000F091FC054B1C60002000E0012028
:10033C0010BD00BF080000200000002004000020B9
:10034C0008B5074A136843F010031360032000F04C
:10035C0069FC0F20FFF7CEFFFFF7AAFF002008BDB6
:10036C0000200240034A1168034B1B780B441360B6
:10037C00704700BF2800002000000020014B1868C7
:10038C00704700BF2800002038B50446FFF7F6FF81
:10039C000546B4F1FF3F02D0044B1B781C44FFF719
:1003AC00EDFF401BA042FAD338BD00BF0000002077
:1003BC0082B0084B1B68084AA2FB03235B0A00FBB4
:1003CC0003F3019300BF019B5A1E0192002BF9D13C
:1003DC0002B0704708000020D34D6210002800F0D6
:1003EC00F38170B582B00446036813F0010F2CD072
:1003FC009A4B5B6803F00C03042B1DD0974B5B6886
:10040C0003F00C03082B12D06368B3F5803F41D086
:10041C00002B55D103F1804303F504331A6822F401
:10042C0080321A601A6822F480221A6037E08B4BF3
:10043C005B6813F4803FE7D0884B1B6813F4003FD4
:10044C0003D06368002B00F0C181236813F0020F06
:10045C0075D0824B5B6813F00C0F5FD07F4B5B68E1
:10046C0003F00C03082B54D02369002B00F08A8076
:10047C007B4B01221A60FFF781FF0546774B1B6807
:10048C0013F0020F75D1FFF779FF401B0228F5D945
:10049C000320A0E1714A136843F48033136063684E
:1004AC0043B3FFF76BFF05466C4B1B6813F4003F1F
:1004BC00CBD1FFF763FF401B6428F5D903208AE1F9
:1004CC00B3F5A02F09D0654B1A6822F480321A605C
:1004DC001A6822F480221A60E1E703F18043A3F545
:1004EC003C331A6842F480221A601A6842F4803253
:1004FC001A60D4E7FFF742FF0546584B1B6813F40C
:10050C00003FA2D0FFF73AFF401B6428F5D9032027
:10051C0061E1524B5B6813F4803FA5D14F4B1B68D4
:10052C0013F0020F03D02369012B40F051814B4A89
:10053C00136823F0F803616943EAC103136023686D
:10054C0013F0080F33D0A369002B5DD0444B01226C
:10055C00C3F88024FFF712FF0546404B5B6A13F08B
:10056C00020F21D1FFF70AFF401B0228F5D9032007
:10057C0031E13A4A136823F0F803616943EAC10395
:10058C001360DCE7364B00221A60FFF7F7FE0546D6
:10059C00324B1B6813F0020FD1D0FFF7EFFE401B5C
:1005AC000228F5D9032016E10120FFF701FF23688B
:1005BC0013F0040F00F09880284BDB6913F0805F78
:1005CC0035D1264BDA6942F08052DA61DB6903F0EF
:1005DC0080530193019B01231E46224B1B6813F48D
:1005EC00807F27D0E368012B3ED0002B54D103F140
:1005FC00804303F504331A6A22F001021A621A6A64
:10060C0022F004021A6234E0154B0022C3F8802455
:10061C00FFF7B4FE0546114B5B6A13F0020FC6D010
:10062C00FFF7ACFE401B0228F5D90320D3E00023D2
:10063C001E46D2E70B4A136843F480731360FFF72E
:10064C009DFE0546074B1B6813F4807FCAD1FFF74C
:10065C0095FE401B6428F5D90320BCE00010024035
:10066C0000004242007000405F4A136A43F00103ED
:10067C001362E36833B3FFF781FE05465A4B1B6ADE
:10068C0013F0020F2FD1FFF779FE401B41F2883394
:10069C009842F3D903209EE0052B09D0524B1A6ADD
:1006AC0022F001021A621A6A22F004021A62E0E7CE
:1006BC004D4B1A6A42F004021A621A6A42F00102A5
:1006CC001A62D6E7FFF75AFE0546474B1B6A13F032
:1006DC00020F08D0FFF752FE401B41F288339842BC
:1006EC00F3D9032077E0E6B9E369002B72D03E4AD8
:1006FC00526802F00C02082A56D0022B17D03B4B42
:10070C0000221A66FFF73AFE0446374B1B6813F0BB
:10071C00007F47D0FFF732FE001B0228F5D90320DB
:10072C0059E0314AD36923F08053D361DCE72F4B76
:10073C0000221A66FFF722FE05462B4B1B6813F0AE
:10074C00007F06D0FFF71AFE401B0228F5D90320C4
:10075C0041E0236AB3F5803F1AD023494B6823F458
:10076C007413226A606A024313434B601F4B0122CD
:10077C001A66FFF703FE04461B4B1B6813F0007F41
:10078C000ED1FFF7FBFD001B0228F5D9032022E058
:10079C00154A536823F40033A1680B435360DCE71C
:1007AC00002018E0002016E0012B16D00E4B5B68E1
:1007BC0003F48031226A914211D103F47013626AFE
:1007CC0093420ED1002006E001207047012002E088
:1007DC00012000E0184602B070BD0120FBE70120AB
:1007EC00F9E70120F7E700BF001002400000424289
:1007FC000F4B5B6803F00C02082A01D00D487047C0
:10080C00C3F383420C49885C13F4803F0BD0084B34
:10081C005B68C3F34043094AD35C064A02FB00F011
:10082C00B0FBF3F07047064B03FB00F0704700BFC2
:10083C000010024000127A00600D00085C0D0008E8
:10084C0000093D00002800F0A08070B50D4604465C
:10085C00524B1B6803F007038B420BD24F4A1368B1
:10086C0023F007030B431360136803F007038B4259
:10087C0040F08D80236813F0020F17D013F0040F93
:10088C0004D0474A536843F4E0635360236813F081
:10089C00080F04D0424A536843F460535360404AF3
:1008AC00536823F0F003A1680B435360236813F0E3
:1008BC00010F31D06368012B20D0022B25D0384A90
:1008CC00126812F0020F64D035494A6822F0030214
:1008DC0013434B60FFF752FD0646314B5B6803F048
:1008EC000C036268B3EB820F16D0FFF747FD801B39
:1008FC0041F288339842F0D9032045E0284A126827
:10090C0012F4003FE0D101203EE0254A126812F0BB
:10091C00007FD9D1012037E0204B1B6803F007037F
:10092C00AB420AD91D4A136823F007032B4313600B
:10093C00136803F00703AB422DD1236813F0040FA7
:10094C0006D0174A536823F4E063E1680B43536005
:10095C00236813F0080F07D0114A536823F460532F
:10096C00216943EAC1035360FFF742FF0C4B5B68FC
:10097C00C3F303130B4AD35CD8400B4B18600B4BDF
:10098C001868FFF7B7FC002070BD012070470120EC
:10099C00FAE70120F8E70120F6E700BF002002404B
:1009AC0000100240700D0008080000200400002018
:1009BC0070B582B04FF0000EF446A4E0012B28D0A5
:1009CC00022B03D1CB6803F1080E24E01BBB8B6810
:1009DC00002B65D0012B5CD042614FF0080E1AE061
:1009EC00664DAB42F3D00CD8A5F58015AB42EED0DA
:1009FC0005F57025AB42EAD0A5F58015AB42E6D0E3
:100A0C0009E05F4DAB42E2D005F58035AB42DED05C
:100A1C0001E0D1F80CE0FF2C45D806464FEA8C02D9
:100A2C0033680F25954023EA05030EFA02F21343AF
:100A3C0033604B6813F0805F63D0524B9A6942F07D
:100A4C0001029A619B6903F001030193019B4FEA38
:100A5C009C02951C4C4B53F825600CF00305AD0023
:100A6C000F23AB4026EA0306484B984222D003F5ED
:100A7C008063984263D003F58063984261D003F59C
:100A8C008063984214D0042315E0CB6803F10C0E5C
:100A9C00C1E702614FF0080EBDE74FF0000EBAE758
:100AAC004FF0040EB7E7061DACF108029200B7E751
:100ABC00032300E00023AB4033430232324D45F8B0
:100ACC0022304B6813F4801F3DD0314A9368234386
:100ADC0093604B6813F4001F3BD02D4AD36823431B
:100AEC00D3604B6813F4003F39D0294A5368234331
:100AFC0053604B6813F4803F37D0254A1368234367
:100B0C0013600CF1010C0B6833FA0CF233D0012298
:100B1C0002FA0CF203EA020432EA0303F1D14B6845
:100B2C00032BBAD07FF64AAF122BAED03FF658AF9C
:100B3C00112B7FF470AFCB6803F1040E6BE701232C
:100B4C00B9E70223B7E7124A936823EA04039360D8
:100B5C00BFE70F4AD36823EA0403D360C1E70C4A0A
:100B6C00536823EA04035360C3E7094A136823EA72
:100B7C0004031360C5E702B070BD00BF0000221073
:100B8C00000031100010024000000140000801403C
:100B9C00000401400AB1016170470904016170470A
:100BAC00C36801EA030221EA030141EA024101613F
:100BBC0070470000002808DB0901C9B200F1604051
:100BCC0000F5614080F80013704700F00F00090138
:100BDC00C9B2014B1954704714ED00E000B500F098
:100BEC000700A0F1030CBCF1040F07D8C0F1070EED
:100BFC000430062806D84FF0000C03E04FF0040E2A
:100C0C004FF0000C4FF0FF3303FA0EF021EA000115
:100C1C0001FA0CF103FA0CF322EA030241EA020096
:100C2C0000BD0000074AD36823F4E0631B041B0CCF
:100C3C00000200F4E060034343F0BF6343F400336D
:100C4C00D360704700ED00E010B50446054BD86842
:100C5C00C0F30220FFF7C2FF01462046FFF7AAFFB0
:100C6C0010BD00BF00ED00E00138B0F1807F0BD269
:100C7C004FF0E0235861054AF02182F82310002040
:100C8C00986107221A6170470120704700ED00E05F
:100C9C0070470000FFF7FCFF0B480C490C4A00237F
:100CAC0002E0D458C4500433C4188C42F9D3094A16
:100CBC00094C002301E013600432A242FBD300F084
:100CCC0017F8FFF7D5FA7047000000200C00002041
:100CDC00880D00080C0000202C000020FEE70346C5
:100CEC000244934200D1704703F8011BF9E700005E
:100CFC0070B500260C4C0D4B1D1BB6EBA50F09D186
:100D0C00002600F019F80A4C0A4B1D1BB6EBA50F78
:100D1C0005D170BD54F8043B98470136EDE754F803
:100D2C00043B98470136F1E7800D0008800D000860
:100D3C00800D0008840D0008F8B500BFF8BC08BC95
:100D4C009E467047F8B500BFF8BC08BC9E4670477D
:100D5C000102000002030405060708090A0B0C0D2A
:100D6C000E0F101000000000000000000102030430
:040D7C000607080955
:040D800075010008F1
:040D84004D01000815
:0C0D8800010000001000000000127A00C2
:0400000508000CA142
:00000001FF
